:020000040800F2
:10000000B8050020450100080F1300083909000851
:100010000D1300088D0100086114000800000000A5
:1000200000000000000000000000000013130008A2
:100030008F010008000000001113000815130008CC
:100040005F0100085F0100085F0100085F01000810
:100050005F0100085F0100085F0100085F01000800
:100060005F0100085F0100085F0100085F010008F0
:100070005F0100085F0100085F0100085F010008E0
:100080005F0100085F0100085F0100085F010008D0
:100090005F0100085F0100085F0100085F010008C0
:1000A0005F0100085F0100085F0100085F010008B0
:1000B0005F0100085F0100085F01000849090008AE
:1000C0003D0900085F0100085F0100085F010008AA
:1000D0005F01000849140008551400085F0100087A
:1000E0005F0100085F0100085F0100085F01000870
:1000F0005F0100085F0100085F0100085F01000860
:100100005F0100085F0100085F0100085F0100084F
:100110005F0100085F0100085F0100085F0100083F
:100120005F0100085F0100085F0100085F0100082F
:10013000DFF80CD000F018F80048004781140008E0
:10014000B80500200648804706480047FEE7FEE75E
:10015000FEE7FEE7FEE7FEE7FEE7FEE7FEE7FEE777
:100160001913000831010008064C074D06E0E0684D
:1001700040F0010394E8070098471034AC42F6D3EE
:10018000FFF7DAFF0C1500082C150008FEE7704792
:1001900010B590F821100022022905D004218163B6
:1001A00080F82020012010BD01680B6823F00E03A9
:1001B0000B6001680B6823F001030B6090F840307E
:1001C000C46B012101FA03F3636080F8211080F809
:1001D0002020104610BD00002DE9F05F90F821109E
:1001E0000024022903D004218163012485E00168F1
:1001F0000A6822F00E020A6001680A6822F0010211
:100200000A603F4E3E4FB215DFF8F4C0DFF8F090C1
:10021000DFF8ECA0DFF8E8B0DFF8E4E00168783F51
:1002200013011502ACF1640CA9F15009AAF13C0AC2
:10023000ABF1280BAEF1140E4FF48018B14227D960
:10024000B9420ED0614512D049451DD0514518D054
:10025000594518D0714501D1424615E0294EB142A9
:1002600001D1012210E0274E1436B14201D11022F3
:100270000AE0244E2836B14206D0224A3C3291424E
:1002800001D11A4600E02A461E49091F0A602BE0E8
:10029000B94213D0614517D0494522D051451DD0F0
:1002A00059451DD0714501D142461AE0B14202D1F3
:1002B0004FF0807215E0134EB14201D1012210E0DF
:1002C000104E1436B14201D110220AE00D4E2836EC
:1002D000B14206D00B4A3C32914201D11A4600E0AD
:1002E0002A46074980394A60012180F821100021FF
:1002F00080F82010416B01B188472046BDE8F09F8F
:10030000800002400804024090F82100704700007D
:1003100070B5044600F00EF80546601C02D0044893
:100320000078044400F006F8401BA042FAD370BDE8
:10033000040000200148806870470000040000208D
:10034000704770472DE9F041016804464A694E68DC
:1003500090F83E000025D743FA050BD4F243D205AE
:1003600008D46FF4807201254A6121680A6842F45A
:1003700000420A60B90508D4F143C90505D42268D2
:100380006FF4007145F002055161790525D4F14300
:10039000C90522D4638D94F83D10226B202808D122
:1003A0003BB9212910D029290ED0282901D1212A91
:1003B0000AD022686FF48061516145F0040510286D
:1003C00006D0402804D008E0204600F0AFFE04E04C
:1003D0002068016841F400710160380508D4F043D9
:1003E000C00505D421686FF4006045F00805486138
:1003F000002D07D0206C284320642046BDE8F04142
:1004000000F006BBBDE8F0812DE9F047026800214D
:100410005368C66A90F83E4090F83D50102C12D0B8
:10042000402C10D0046C002C7DD05469E443A60706
:100430007AD4DE43B60577D4036C03B19169BDE885
:10044000F04700F04FBE976951694FF42A0CC94339
:100450005FEAC1784FF02A4904D066452AD04E455C
:1004600028D010E0DE43B6050DD4C16A614501D144
:10047000012103E0C16A494501D10821C162BDE8FB
:10048000F04700F099BD0E0716D4DE43B60513D42D
:10049000416CC9B21161416B09B1896A29B9816B9B
:1004A000002907D0896A002904D00068416841F416
:1004B00000614160BDE8F0878E0706D4DE43B605D3
:1004C00003D4BDE8F04700F0CBBCFE43526876078A
:1004D0004FEA02521DD4002AECDB0A0608D4DA43A4
:1004E000520505D4490705D5BDE8F04700F05CBCCE
:1004F0004907DFD4D9438905DCD4212D05D0402C10
:10050000D8D1BDE8F04700F09DBDBDE8F04700F050
:1005100009BC002ACEDB4A060BD4DA43520508D4C4
:10052000490708D501E00DE00EE0BDE8F04700F016
:1005300085BB4907BED4D9438905BBD4BDE8F04784
:1005400000F012BB916970E7E10606D4D943890532
:1005500003D4BDE8F04700F02BBE2821212D27D081
:10056000292D25D0650655D4DD436D0552D4640789
:1005700052D590F83D30448D002C9BD01269446ACE
:100580002270426A521C4262428D521E4285428D46
:10059000002A8FD12A2B8DD10268536823F48063FF
:1005A00053602222026380F83D1000F04BF881E78F
:1005B000250623D4DD436D0520D4640720D590F8AB
:1005C0003D30448D002CF2D0446A24781461426A94
:1005D000521C4262428D521E4285428D002AE6D153
:1005E000292BE4D10268536823F4806353602122ED
:1005F000026380F83D1000F026F85BE76107D6D46F
:10060000D9438905D3D4418D0029D0D0416A0978D6
:1006100011610AE06107CAD4D9438905C7D4418D65
:100620000029C4D01169426A1170416A491C4162B3
:10063000418D491E41853DE77047704770477047BF
:1006400070477047704770470248816802781144CC
:10065000816070470400002070477047F8B5026859
:1006600004461068D168536910F00F0F4FF0000571
:1006700054D003F0010601F4907737435FD0C207EE
:1006800005D0CA0503D5226C42F00102226442075C
:1006900005D5DA0703D0226C42F0020222648207F9
:1006A00005D5DA0703D0226C42F004022264020767
:1006B00007D501F02002324303D0226C42F0080239
:1006C0002264226C002A35D0800604D5880602D523
:1006D000204600F042FE20684069216CC0F3801083
:1006E00001F008010143204625D000F01EFE2068DD
:1006F000416949061BD5416921F040014161A06B68
:10070000A8B158494163A06BFFF766FD002811D0DE
:10071000A06B416B01B0BDE8F040084783060ED5E1
:100720008B060CD52046BDE8F84000F016BE2046EA
:10073000FFF793FFF8BDFFF790FF2564F8BD266B28
:100740002023012E52D1C60650D5CE064ED51068B4
:1007500050680090506940062AD5A16B086840682F
:100760000004000CEAD0A68D8642E7D9E0858869AE
:10077000202818D0D06820F48070D06020684169AB
:1007800021F0010141612068416921F0400141618E
:1007900084F83E3025632068C16821F01001C160F3
:1007A000A06BFFF7F5FCA08DE18D401A81B219E036
:1007B000A08DE18D401A81B2E08D0028BED00029C5
:1007C000BCD0D06820F49070D0602068426922F0DC
:1007D0000102426184F83E3025632068C26822F03D
:1007E0001002C2602046FFF737FFF8BD05062BD583
:1007F0000D0629D594F83D002128F6D1A068B0F562
:10080000805F01D12069B0B1206A411C216221685A
:1008100000784860E08C401E0004000CE084E4D1C5
:100820002068C16821F08001C1602068C16841F082
:100830004001C160F8BD206A0088C0F30800506024
:10084000206A801C2062E5E74006F3D54806F1D512
:10085000D168204621F04001D16084F83D3000F09D
:100860006AF8F8BD1B13000890F83E30202B0ED11B
:1008700059B152B190F83C30012B08D0012380F8D7
:100880003C300023036300F0C3BD01207047022009
:100890007047000070B5044600681349884221D1B2
:1008A00012494A8810040DD408780D2811D0104D33
:1008B000C2F30D03521CE85490B24880C72801D9F6
:1008C000002048802046BDE8704001220749FFF71C
:1008D000CBBF42F400404880012204490548FFF79D
:1008E000C3FFEFE770BD00000038014000000020AA
:1008F000140000203001002090F83D30202B18D14A
:10090000A9B1A2B190F83C30012B12D001628284CF
:10091000C28400210164212280F83D2080F83C102F
:100920000068C16841F08001C1600020704701206B
:100930007047022070477047FEE700000148FFF74C
:1009400001BD0000DC0000200148FFF75DBD000094
:10095000DC00002038B5406A002190F83D202B4B88
:1009600046F2A8141B68B3FBF4F3C3EBC30303EB19
:10097000830300933BB15B1E009303681B689B05D8
:1009800005D5009BF6E7036C43F020030364436B3B
:1009900003B19962836B03B1996203681C6824F404
:1009A00080641C604185436B03B15963836B03B161
:1009B000596303681C6824F001041C6090F83D40F2
:1009C0002023602C0BD0282434EA02020FD080F8B8
:1009D0003D3080F83E1000BFFFF72EFE38BD80F896
:1009E0003D3080F83E100164FFF7AAFC38BD026874
:1009F000136843F0010313600268136843F48063D3
:100A00001360016380F83D40E6E70000100000201D
:100A100070B5044690F83D0094F83E10102901D0BE
:100A2000402906D1222804D121680A6822F40062F4
:100A30000A60282131EA00024FF000054FF020063D
:100A400026D021684968090505D4602803D084F8B8
:100A50003D6084F83E50256320684168090537D51C
:100A6000416821F400614160606B3D4990F82120AC
:100A7000012A11D04163606BFFF7AEFB38B32068E9
:100A8000016821F00101016084F83D60606B1CE0A9
:100A9000256384F83D10DFE7A06B4163A06BFFF78F
:100AA0009BFBA0B120684169C943490605D4006990
:100AB000616A0870606A401C60622068016821F009
:100AC0000101016084F83D60A06B416B884710E034
:100AD00094F83D10602910D04169C943490605D4F6
:100AE0000069616A0870606A401C60622046FFF716
:100AF000A3FD206CC1071CD115E084F83D6025647E
:100B00004169C943490605D40069616A0870606A91
:100B1000401C60622068016821F0010101602046EC
:100B2000FFF70EFCE5E7810703D4410701D4000776
:100B300004D52068416821F4E061416094F83D00EB
:100B4000216C49070BD5282809D10648E0622563A6
:100B500084F83D6084F83E502046FFF76EFD70BD7E
:100B6000550900080000FFFF10B5C26A438D0168F7
:100B7000042B06D0438D032B08D0438D022B1DD0B0
:100B800012E04A6822F480624A600CE04B6823F469
:100B900080634B60042A06D0022A04D001680A68E8
:100BA00022F480620A6001680969426A1170416A30
:100BB000491C4162418D491E418510BD012A30D03A
:100BC000102A2ED0042A30D0022A2ED00A6842F4ED
:100BD00000720A6001680969426A1170416A491C21
:100BE0004162428D521E4285026812690A70416A52
:100BF000491C4162418D491E418501684A6822F4C1
:100C000040724A60202180F83D1090F83E2000217B
:100C1000402A80F83E100CD012210163FFF70EFD30
:100C200010BD0A6822F48062D3E70A6842F4806249
:100C3000CFE70163FFF704FD10BD000038B590F861
:100C40003D10222914D1418D032912D90168096967
:100C5000426A1170416A491C4162418D491E4185B9
:100C6000418D032904D10068416821F4806141600D
:100C700038BDC26A022AFBD0012901D00029F7D170
:100C8000274946F2A81300220968B1FBF3F101EBF2
:100C90008101009101682023009C641E009422D0F1
:100CA0000C68A405F8D40C6824F480640C60016816
:100CB0004C6824F4E0644C6001680969446A21705E
:100CC000416A491C4162418D491E418580F83D3091
:100CD00090F83E1080F83E2040291DD0122101637B
:100CE000FFF7ACFC38BD046C44F0200404644C688D
:100CF00024F4E0644C6001680969446A2170416A27
:100D0000491C4162418D491E418580F83D3080F883
:100D10003E20FFF791FC38BD0263FFF791FC38BD20
:100D20001000002010B5C26A90F83D1021290BD1A7
:100D3000418D51B1416A026809781161416A491CCB
:100D40004162418D491E418510BD20230021082AA2
:100D500013D0202A11D012F5803F0ED002685468BB
:100D600024F4E06454601122026380F83E1080F89D
:100D70003D3000BFFFF763FC10BD0268546824F4E7
:100D8000E06454600268146844F400741460016301
:100D900080F83D3090F83E2080F83E10402AE9D19E
:100DA000FFF74FFC10BD000010B590F83D1090F813
:100DB0003E30C26A048DB4B1212903D0402B11D139
:100DC00022290FD1418DE1B390F83E10402942D045
:100DD000416A026809781161416A491C4162418D8A
:100DE000491E418510BD2129E8D120230021082A70
:100DF00013D0202A11D012F5803F0ED0026854681B
:100E000024F4E06454601122026380F83E1080F8FC
:100E10003D3000BFFFF713FC10BD0268546824F496
:100E2000E06454600268146844F400741460016360
:100E300080F83D3090F83E2080F83E10402AE9D1FD
:100E400000E002E0FFF7FDFB10BD0068416821F4FF
:100E50008061416010BDBDE8104000F0F3B80000B3
:100E600078B590F83E50C26A046B90F83D6000235C
:100E70000168222E73D1066D0EB9402D6FD0056D1D
:100E80001DB90569B5F5404F1BD0458D95B3468D0D
:100E9000484D012E20D0448D022C4DD00C6844F4D6
:100EA00080640C6001684C68240579D5AA4273D02F
:100EB000012A71D0082A6FD0102A6DD0202A6BD059
:100EC0006EE04A698A6900920A6842F480720A6098
:100ED000016D491C016578BDAA4214D10A6822F44B
:100EE00080620A6001684A68120504D50A6822F423
:100EF000806217E0FFE74A698A6900920A6842F453
:100F000000720A6050E0082A10D0202A0ED0122C5D
:100F10000AD0042A03D0022A01D0102AE6D10A6896
:100F200042F480620A603BE0012ADFD00A6822F4C2
:100F300080620A600168DEE7042A11D0022A0FD01D
:100F4000102A0DD00C6844F400640C6001684C69F0
:100F50008C6900940C6824F480640C6008E025E03F
:100F60000C6844F480640C6001684C6989690091E4
:100F700001684C68240517D5AA4207D0012A05D07C
:100F8000082A03D0102A01D0202A0DD14A6842F441
:100F900080524A6008E0FFE74A6842F480524A60A3
:100FA00001684A6989690091036578BD4869886963
:100FB000009078BD0000FFFF90F83E10402910D04F
:100FC0000169B1F5804F19D0016DA9B3016D0129F7
:100FD00010D1416C5FF0F10201F4407142EAD1118D
:100FE00006E0016D0029416C05D0C9B241F0010154
:100FF00000680161704701F0FE01F9E790F83D10CB
:101000002129416C09D0C9B241F001010268116186
:10101000416B29B1896A49B902E001F0FE01F5E7A7
:10102000816B0029E6D0896A0029E3D00068416815
:1010300041F4006141607047FFE7416CF02201F428
:101040004071CBE710B590F83D10026D22B3026DF0
:10105000012A2FD0026D022A1DD122292FD0428DC4
:101060000AB1212933D0428D002A14D1212912D16D
:1010700001684A6822F4E0624A6001680A6842F442
:1010800000720A6000210163202280F83D2080F870
:101090003E10FFF7D6FA10BDC16C0129816C02D059
:1010A000C1F3072108E00268C9B21161016D891C12
:1010B000016510BD816CC9B20268116104E001686C
:1010C0000A6842F480720A60016D491CF0E7416AC7
:1010D000026809781161416A491C4162418D491ECB
:1010E000418510BD38B50C4690F83D2000212825DB
:1010F000954302680B4605D051699169009180F8CB
:101100003C3038BD556825F480655560E24354078E
:1011100000D50121120601D5828900E0028B80F8FA
:101120003C3092B2FFF70DF938BD00002DE9F041D7
:1011300090F83D40C26A002320261C4F01686FF4DE
:101140008065082A01D0202A01D1282C04D0212C26
:1011500016D04D61BDE8F081C7624A6822F4E062B2
:101160004A6001684D6101680A6822F480620A6081
:10117000036380F83D6080F83E30FFF75EFAE9E7F0
:10118000C7622122026380F83D6080F83E304A68E1
:1011900022F4E0624A6001684D6101680A6822F445
:1011A00080620A60FFF74FFAD4E700000000FFFFFB
:1011B000F8B590F83D6004460068416821F4E061AC
:1011C00041602068002541690091016841F00101FA
:1011D00001602068016821F4806101602068416835
:1011E000090520D5474F222E48D02A2E46D0616BC4
:1011F000096849686185618D19B1216C41F004016C
:101200002164416821F400614160606BFFF77CF864
:10121000012808D0606B4763606BFEF7DDFF10B1FB
:10122000606B416B8847608D08B320684169C94392
:10123000490708D40069616A0870606A401C6062EE
:10124000608D401E608520684169C943490608D405
:101250000069616A0870606A401C6062608D401EAF
:101260006085608D18B1206C40F004002064206C13
:1012700000B32046BDE8F840FFF7CABBA16B096880
:1012800049686185618D19B1216C41F004012164C7
:10129000416821F400614160A06BFFF735F8012837
:1012A000C1D0A06B4763A06BFEF796FF0028BAD0B1
:1012B000A06BB6E72A2E06D12563282084F83D00CE
:1012C0002046FFF7BFF994F83D10202028290DD0C3
:1012D000216B222901D0222E07D1256384F83D00FD
:1012E00084F83E502046FFF7ADF9F8BD0649E162AB
:1012F000256384F83D0084F83E502046FFF79DF9B1
:10130000F8BD0000550900080000FFFFFEE7704728
:1013100070477047FFF798B9704710B5406A0021D1
:10132000C185C184FFF799F910BD0168CA6822F42C
:101330009072CA6001684A6922F001024A61016B39
:10134000012904D10168CA6822F01002CA60202174
:1013500080F83E1000210163704708B590F83E10F8
:10136000222901D0022008BD82684FF480539A429E
:1013700001D1016921B1816A9A421BD04AB10AE0C8
:101380000268816A5268C2F308020A80816A891C75
:1013900008E0026972B10268526802F07F020A70C6
:1013A000816A491C8162C18D491E0904090CC185ED
:1013B00003D019E002685268F1E70168CA6822F0B8
:1013C0002002CA600168CA6822F48072CA6001689B
:1013D0004A6922F001024A61202180F83E10016B27
:1013E000012903D0FFF756FA002008BD0021016350
:1013F0000168CA6822F01002CA6001680A68D20651
:1014000002D50A6849680091818DFFF725F9EBE75D
:1014100081628285C28500210164222280F83E20FB
:1014200080F83C100168CA6842F48072CA600168A2
:101430004A6942F001024A610068C16841F0200136
:10144000C1600020704700000148FFF707B90000A5
:10145000300100200148FFF701B9000074010020AD
:10146000FEE702E008C8121F08C1002AFAD170473F
:101470007047002001E001C1121F002AFBD1704714
:1014800070B5012217491848FFF7EEF90E2217A18F
:101490001548FFF731FA144C94F83D002028FBD191
:1014A000104D6888000417D5092214A10E48FFF7D3
:1014B00023FA00BF94F83D002028FBD16888124928
:1014C000C0F30E020848FFF717FA00BF94F83D007A
:1014D0002028FBD1002068806420FEF719FF00203F
:1014E00070BD000000000020300100205553415223
:1014F00054315F5265616479210000004765745F73
:101500004461743A00000000140000202C1500080B
:1015100000000020140000006214000840150008BC
:1015200014000020A4050000721400080000000050
:101530000100000010000000000000000024F40082
:0400000508000131BD
:00000001FF
